:10086B0074656D70657261747572653A00CEC2B64F
:03087B00C83A0078
:10081100759850758921758780758DF3758BF3D225
:0A082100A9D28CD2ACD2AFD28E2245
:0A089B00C2998F993099FDC299228D
:0606FC008B218A228923F4
:100702001208428E248F25E4FDFCC3ED9525EC955D
:10071200245018AB21AA22A9238D828C831203B6FE
:0B072200FF12089B0DBD00010C80DFE2
:01072D0022A9
:1006360078177C007D007BFF7A0879787E007F063C
:100646001203907F5412089BE4FDFCED64034C708A
:10065600057F2E12089B74082DF8E62430FF120839
:100666009B0DBD00010CED64054C70DF7F0D12087B
:060676009B7F0A02089BB5
:0F075F00C2A5C2A77F017E0012076E8980D2A7B4
:10076E00E4FDFCC3ED9FEC9E5015E4FBFA0BBB00C1
:0F077E00010ABA01F8BB2CF50DBD00010C80E497
:01078D002249
:1007D400C2A6D2A5C2A77F017E0012076ED2A712BD
:0E07E400076EE580339200C2A712076EA200D6
:0107F20022E4
:10087E00A9071207D440FBC2A612075FC2A7020740
:01088E006EFB
:030857002430FF4B
:10085A00A9071207D440FBD2A612075FC2A7020754
:01086A006E1F
:0605E2008B178A1889192D
:1005E8007F3812087E7F0C12087E7F0612087E7FF5
:1005F8000112085A7F8012087EE4F51AF51BAB1722
:10060800AA18A919120842C3E51B9FE51A9E501D96
:10061800AB17AA18A919851B82851A831203B6FF7E
:0D06280012085A051BE51B70D5051A80D17C
:0106350022A2
:04049500AB07AA0601
:10049900C3EA64809480500DEB1B70011A6303FF5B
:1004A9006302FF8000AD03AC02EC1202068F1A8EC4
:1004B900198D188C17E4FFFE7DC87C40AB1AAA1968
:1004C900A918A8171200FBE4FBFAF9783F12000AF1
:1004D90012023FAA06AB077C277D10AF03AE0212BA
:1004E90003E38E0D8F0E7C277D10AF03AE0212033E
:1004F900E37E037FE8CFCDCFCECCCE1203E38E11BE
:100509008F127C037DE8AF03AE021203E37E007F06
:1005190064CFCDCFCECCCE1203E38E138F147C00E3
:100529007D64AF03AE021203E37E007F0ACFCDCF15
:10053900CECCCE1203E38E0F8F10AE02AF037C0038
:100549007D0A1203E38C158D16C3E515940050033B
:100559000205E1D3E5169409E5159400507AC3E53F
:100569000F94004073D3E5109409E50F9400506887
:10057900C3E5129401E51194004011D3E5129403E7
:10058900E511940050067E007F0180047E007F0003
:10059900C3E51394004011D3E5149409E5139400BD
:1005A90050067C007D0180047C007D00EC5EFEED40
:1005B9005FFFE50E450D7005FC7D0180047C007D23
:1005C90000EC5EFEED5F4E600F850E088512098511
:0805D900140A85100B85160CB5
:0105E10022F7
:10072E007FC512087EE508120857E509120857E53D
:10073E000A2430FF12085A7F2E12085AE50B243075
:10074E00FF12085AE50C2430FF12085A7F430208A4
:01075E005A40
:1007B3007BFF7A08796B1205E212081112082B12DB
:1007C300049512072E1206367F647E0012076E8090
:0107D300EB3A
:1007F300D3EF9400EE940040147D6E7C00ED1D70E9
:0D080300011CED4C70F7EF1F70E61E80E346
:0108100022C5
:10078E00C2B77B46AF031BEF70FAD2B7E4FB30B7AC
:10079E00117F017E001207F30BEBD3940540EF7F20
:0407AE0000227F01A5
:0107B2002224
:0C067C0012078E7F017E001207F37FCC76
:10068800E4FBFAC2B70519E51970020518EF1392D1
:10069800B7751800751906E5191519AC1870021503
:1006A800184C70F3D2B7EFC313FF0BBB00010AEB72
:0506B80064084A70CE49
:0106BD00221A
:1006BE007D087C00C2B70FBF0000D2B70FBF00008D
:1006CE000FBF0000A2B7E433C43333335480FBE9C9
:1006DE00C3134BF97E007F04EF1FAA0670011E4A5A
:0D06EE0070F6ED1D70011CED4C70C9AF01E0
:0106FB0022DC
:0808A50012067C7F4402068864
:0808AD0012067C7FBE020688E2
:10082B00E4FFFE1208A51208AD1206BE8F171206C2
:06083B00BEEFFEE517FF11
:010841002294
:100003000202ABE86480F8E933E83360110460F07E
:10001300ED33EC337009E8FCE9FDEAFEEBFF220463
:1000230060DED3EB9FEA9EE99DE8C2E78CF0C2F75E
:1000330095F0400CE8CCF8E9CDF9EACEFAEBCFFB2A
:1000430012027685D0F05804700320D5B3E804700B
:10005300075002B2D50202B592D5EC0460F7E4CCA6
:10006300C0E0C398F8603B94186008400DD0E0FBF3
:1000730002028DE4FBFAC9FC8028E830E406E4C9F7
:10008300FBE4CAFCE830E305E4C9CACBFCE8540747
:100093006010F8C3E913F9EA13FAEB13FBEC13FC52
:1000A300D8F130F52FC3E49CFCEF9BFFEE9AFEEDF5
:1000B30099FDD0E0FBEF4E4D4C701222DB030202A0
:1000C300B2EC2CFCEF33FFEE33FEED33FDED30E706
:1000D300EB02028DEF2BFFEE3AFEED39FDD0E0FB94
:1000E30050130BBB00030202B5ED13FDEE13FEEF3D
:0800F30013FFEC13FC02028D67
:1000FB00EC4D6011E8497017ED33EC3304600DE4FF
:10010B00FCFFFEFD22E933E8330470F80202AB1268
:10011B00027658046009E4CC248150062850090269
:10012B0002B52840030202B2C0E0EB4A7044B9802A
:10013B0006D0E0FB0202A1EF4E701CBD8008EBFF66
:10014B00EAFEE9FD80EBE98DF0A4FEE5F00201E4A7
:10015B00E9CDF9EAFEEBFFEF89F0A4FCE5F0CE89DF
:10016B00F0A42EFFE435F0CD89F0A42DFEE435F09C
:10017B008067EF4E7005BD80D780C3EF8BF0A4ACCA
:10018B00F0EE8BF0A42CFCE435F0F8EF8AF0A42C05
:10019B00E5F038FCE433CB8DF0A42CFCE5F03BF818
:1001AB00EE8AF0A42CFCE5F038F8E433CF89F0A408
:1001BB002CFCE5F038CF3400CE89F0A42FFFE5F00E
:1001CB003EFEE433C98DF0A42EFEE5F039CD8AF066
:1001DB00A42FFFE5F03EFEE43DFD33D0E0FB5007DE
:1001EB000BBB000F0202B5EC2CFCEF33FFEE33FE22
:0601FB00ED33FD02028D50
:1002010075F020800E75F010800575F0087D007E78
:10021100007F003392D530D503120419EC3340101E
:10022100EF33FFEE33FEED33FDEC33FCD5F0ED2281
:0E023100E5F0247EA2D513CC92E7CDCEFF22BD
:10023F00EDD2E7CD33EC3392D524814006E4FFFEB7
:10024F00FDFC22FCE4CFCECDCC24E0501174FF8016
:10025F00EDC3CC13CCCD13CDCE13CECF13CF0470B3
:07026F00F030D5DE02041996
:10027600E9D2E7C933E833F892D5EDD2E7CD33ECCE
:0702860033FC5002B2D52247
:10028D00EC30E7100FBF000C0EBE00080DBD0004D2
:10029D000BEB6014A2D5EB13FCED92E7FD2274FF7E
:1002AD00FCFDFEFF22E480F8A2D574FF13FC7D80D7
:0302BD00E480EFEB
:0300000002088F64
:0C088F00787FE4F6D8FD7581250207B3E0
:1002C000E709F608DFFA8046E709F208DFFA803E20
:1002D00088828C83E709F0A3DFFA8032E309F6080D
:1002E000DFFA8078E309F208DFFA807088828C8375
:1002F000E309F0A3DFFA806489828A83E0A3F60829
:10030000DFFA805889828A83E0A3F208DFFA804C02
:1003100080D280FA80C680D4806980F280338010D9
:1003200080A680EA809A80A880DA80E280CA803342
:1003300089828A83ECFAE493A3C8C582C8CCC583BA
:10034000CCF0A3C8C582C8CCC583CCDFE9DEE7808A
:100350000D89828A83E493A3F608DFF9ECFAA9F009
:10036000EDFB2289828A83ECFAE0A3C8C582C8CC5F
:10037000C583CCF0A3C8C582C8CCC583CCDFEADE78
:10038000E880DB89828A83E493A3F208DFF980CCDA
:1003900088F0EF60010E4E60C388F0ED2402B404D3
:1003A0000050B9F582EB2402B4040050AF2323457A
:0603B0008223900310738C
:1003B600BB010CE58229F582E5833AF583E02250FC
:1003C60006E92582F8E622BBFE06E92582F8E22246
:0D03D600E58229F582E5833AF583E4932260
:1003E300C2D5EC30E709B2D5E4C39DFDE49CFCEE35
:1003F30030E715B2D5E4C39FFFE49EFE120440C369
:10040300E49DFDE49CFC800312044030D507C3E463
:060413009FFFE49EFE22A3
:0E041900C3E49FFFE49EFEE49DFDE49CFC22F4
:10084200E4FFFE120427600C0FEF70010E09E9703D
:05085200F20A80EF2214
:10042700BB010689828A83E0225002E722BBFE02D3
:09043700E32289828A83E4932206
:10044000BC000BBE0029EF8DF084FFADF022E4CCA0
:10045000F875F008EF2FFFEE33FEEC33FCEE9DEC69
:10046000984005FCEE9DFE0FD5F0E9E4CEFD22EDAF
:10047000F8F5F0EE8420D21CFEADF075F008EF2FF9
:10048000FFED33FD4007985006D5F0F222C398FDEA
:050490000FD5F0EA2287
:00000001FF
