:1007790064697374616E63653A00BEE0C0EB3A0068
:0C079600020E0000020B00000214000024
:0806CE00C2A5C2A77F017E0056
:1006D600E4FDFCC3ED9FEC9E5015E4FBFA0BBB005A
:0F06E600010ABA01F8BB2CF50DBD00010C80E430
:0106F50022E2
:10073200C2A6D2A51206D0D2A71206D6E58033925F
:0807420000C2A71206D6A200B6
:01074A00228C
:10074B00A90712073240FBC2A61206CE8980D2A798
:08075B001206D6C2A70206D661
:030717002430FF8C
:10071A00A90712073240FBD2A61206CE8980D2A7B9
:08072A001206D6C2A70206D692
:060592008B278A2889294D
:100598007F3812074B7F0C12074B7F0612074B7FE1
:1005A8000112071A7F8012074BE4F52AF52BAB27B7
:1005B800AA28A92912000EC3E52B9FE52A9E501DE3
:1005C800AB27AA28A929852B82852A83120381FFB4
:0D05D80012071A052BE52B70D5052A80D1DE
:0105E50022F3
:10076300759850758921758780758DF3758BF3D2D4
:06077300ACD2AFD28E22D1
:0D078900C299EF2430F5993099FDC29922F4
:0A07A300C2998F993099FDC2992286
:06069C008B168A17891875
:1006A20012000E8E198F1AE4FDFCC3ED951AEC951B
:1006B200195018AB16AA17A9188D828C83120381C0
:0B06C200FF1207A30DBD00010C80DF3C
:0106CD00220A
:1005E60078217C007D007BFF7A0779837E007F0679
:1005F60012035B7F441207A3E4FDFCED64014C701B
:10060600057F2E1207A374082DF8E6FF1207890D41
:10061600BD00010CED64034C70E17F0D1207A37F52
:040626000A0207A31A
:10042A00AF8CEFFEAD8A7C00E42DF511EC3EF510A1
:10043A00E4F58CF58AAC10AD111201D17B9A7A9948
:10044A0079D9783F120026E4FBFA79C8784212017A
:10045A002F12020A8E128F13C3E51394BCE512946D
:10046A00025005E50DB40114E4F50DF50E750F09FA
:10047A00F50B750C09F5147515098034AE12AF1316
:10048A007C007D0A1203AE8C0E8D0FAE12AF137C68
:10049A00007D0A1203AE7C007D0A1203AE8C0B8D1E
:1004AA000CAE12AF137C007D641203AE8E148F154E
:1004BA00C3E50E648094804042D3E50F9409E50EAB
:1004CA00648094805035C3E50B64809480402CD3BB
:1004DA00E50C9409E50B64809480501FC3E514640D
:1004EA008094804016D3E5159408E51464809480BE
:0C04FA005009850F0A850C0985150822A1
:1006F6007FC512074BE5081207177F2E12071AE56A
:1007060009120717E50A2430FF12071A7F4D020760
:010716001AC8
:100665007BFF7A077979120592120763C2A1E4F537
:100675008CF58AD2A9D2A11206D2C2A130A0FDD290
:100685008C20A0FDC28C12042A1206F67F647E001F
:070695001206D6D29980DEA7
:03000B00020003ED
:04000300750D013244
:0300230002062AA8
:10062A00C0E0C0F0C083C082C0D075D000C000C096
:10063A0001C002C003C004C005C006C0071205E617
:10064A00D007D006D005D004D003D002D001D00004
:0B065A00D0D0D082D083D0F0D0E032AE
:10002600EC4D6011E8497017ED33EC3304600DE4D4
:10003600FCFFFEFD22E933E8330470F80202761273
:10004600024158046009E4CC248150062850090274
:10005600028028400302027DC0E0EB4A7044B9806A
:1000660006D0E0FB02026CEF4E701CBD8008EBFF71
:10007600EAFEE9FD80EBE98DF0A4FEE5F002010F52
:10008600E9CDF9EAFEEBFFEF89F0A4FCE5F0CE89B5
:10009600F0A42EFFE435F0CD89F0A42DFEE435F072
:1000A6008067EF4E7005BD80D780C3EF8BF0A4ACA0
:1000B600F0EE8BF0A42CFCE435F0F8EF8AF0A42CDB
:1000C600E5F038FCE433CB8DF0A42CFCE5F03BF8EE
:1000D600EE8AF0A42CFCE5F038F8E433CF89F0A4DE
:1000E6002CFCE5F038CF3400CE89F0A42FFFE5F0E4
:1000F6003EFEE433C98DF0A42EFEE5F039CD8AF03C
:10010600A42FFFE5F03EFEE43DFD33D0E0FB5007B3
:100116000BBB000F020280EC2CFCEF33FFEE33FE2C
:06012600ED33FD0202585A
:10012C00020280EC5D046005E8590470030202765B
:10013C00120241580460F6EC4860F2EC7004FDFECB
:10014C00FF22C860DB2481C85009C39860025006A6
:10015C0002027D9850CAF582E9294B4A7005AB82A0
:10016C0002026C75F0007C1A7880C3EF9BEE9AED5E
:10017C0099400DC3EF9BFFEE9AFEED99FDE842F01E
:10018C00DC23ACF0D0E0FFD0E0FED0E0FDAB822071
:10019C00E7101BEB60BAEC2CFCEF33FFEE33FEEDFB
:1001AC0033FD020258E803F830E705C0F075F000A3
:1001BC00EF2FFFEE33FEED33FD40B830E7C280AADF
:1001CC0075F020800E75F010800575F0087D007EAE
:1001DC00007F003392D530D503120403EC3340106A
:1001EC00EF33FFEE33FEED33FDEC33FCD5F0ED22B7
:0E01FC00E5F0247EA2D513CC92E7CDCEFF22F3
:10020A00EDD2E7CD33EC3392D524814006E4FFFEEC
:10021A00FDFC22FCE4CFCECDCC24E0501174FF804B
:10022A00EDC3CC13CCCD13CDCE13CECF13CF0470E8
:07023A00F030D5DE020403E1
:10024100E9D2E7C933E833F892D5EDD2E7CD33EC03
:0702510033FC5002B2D5227C
:10025800EC30E7100FBF000C0EBE00080DBD000407
:100268000BEB6014A2D5EB13FCED92E7FD2274FFB3
:10027800FCFDFEFF22E480F8A2D574FF13FC7D800C
:03028800E480EF20
:03000000020506F0
:0C050600787FE4F6D8FD75812B02054DCE
:10028B00E709F608DFFA8046E709F208DFFA803E55
:10029B0088828C83E709F0A3DFFA8032E309F60842
:1002AB00DFFA8078E309F208DFFA807088828C83AA
:1002BB00E309F0A3DFFA806489828A83E0A3F6085E
:1002CB00DFFA805889828A83E0A3F208DFFA804C38
:1002DB0080D280FA80C680D4806980F2803380100F
:1002EB0080A680EA809A80A880DA80E280CA803378
:1002FB0089828A83ECFAE493A3C8C582C8CCC583F0
:10030B00CCF0A3C8C582C8CCC583CCDFE9DEE780BF
:10031B000D89828A83E493A3F608DFF9ECFAA9F03E
:10032B00EDFB2289828A83ECFAE0A3C8C582C8CC94
:10033B00C583CCF0A3C8C582C8CCC583CCDFEADEAD
:10034B00E880DB89828A83E493A3F208DFF980CC0F
:10035B0088F0EF60010E4E60C388F0ED2402B40408
:10036B000050B9F582EB2402B4040050AF232345AF
:06037B0082239002DB73F7
:10038100BB010CE58229F582E5833AF583E0225031
:1003910006E92582F8E622BBFE06E92582F8E2227B
:0D03A100E58229F582E5833AF583E4932295
:1003AE00BC000BBE0029EF8DF084FFADF022E4CC33
:1003BE00F875F008EF2FFFEE33FEEC33FCEE9DECFC
:1003CE00984005FCEE9DFE0FD5F0E9E4CEFD22ED42
:1003DE00F8F5F0EE8420D21CFEADF075F008EF2F8C
:1003EE00FFED33FD4007985006D5F0F222C398FD7D
:0503FE000FD5F0EA221A
:0E040300C3E49FFFE49EFEE49DFDE49CFC220A
:10000E00E4FFFE120411600C0FEF70010E09E9708F
:05001E00F20A80EF2250
:10051200020665E493A3F8E493A34003F68001F294
:1005220008DFF48029E493A3F85407240CC8C333EA
:10053200C4540F4420C8834004F456800146F6DFB9
:10054200E4800B0102040810204080900796E47EAC
:10055200019360BCA3FF543F30E509541FFEE493AE
:10056200A360010ECF54C025E060A840B8E493A375
:10057200FAE493A3F8E493A3C8C582C8CAC583CAA0
:10058200F0A3C8C582C8CAC583CADFE9DEE780BE58
:0107A2000056
:10041100BB010689828A83E0225002E722BBFE02E9
:09042100E32289828A83E493221C
:00000001FF
